:100000001CEF00F09EA8FED7AD6E3DEF00F0EA6A4F
:10001000060EE96EEF500EE0040E016E006A002E2F
:10002000FED7012EFBD7DC0E006E002EFED700009F
:10003000EF2EF2D749EF00F0F86AD09EB886860E10
:10004000AF6E010EB06EA60EAC6E900EAB6EC150D0
:10005000F00BC16E000E0F01386F396F3A6F776A7F
:10006000786A796AC69A949A94889496310EC66E84
:10007000400EC76E550E0001C5D7C950550EC96E4A
:10008000C730FEE393908A70040E056EFA0E066E7A
:10009000BED7052EFBD70F01EDD7000E016E030072
:020000040030CA
:0E00000000E21E3C00BF81000FC00FE00F4069
:00000001FF
;PIC18F25K22
;CRC=CF28  CREATED="12-mai-15 12:07"
