:100000001CEF00F09EA8FED7AD6E3FEF00F0EA6A4D
:10001000060EE96EEF500EE0040E016E006A002E2F
:10002000FED7012EFBD7DC0E006E002EFED700009F
:10003000EF2EF2D749EF00F0F86AD09EB886860E10
:10004000AF6E010EB06EA60EAC6E900EAB6EC69A81
:10005000000EC76EFF0EC86E2A0EC66E949A948864
:100060009496C150F00BC16E000E0F01386F396FBE
:100070003A6F776A786A796A550E0001C3D7C9501A
:10008000550EC96EC730FEE3040E056EFA0E066EFD
:10009000BED7052EFBD70F01EFD7000E016E030070
:020000040030CA
:0E00000000E21E3C00BF81000FC00FE00F4069
:00000001FF
;PIC18F25K22
;CRC=E1D0  CREATED="02-abr-15 16:37"
